:1020000000800020C16B000061690000AB6B000024
:1020100000000000000000000000000000000000C0
:10202000000000000000000000000000AB6B00009A
:102030000000000000000000AB6B0000156C000009
:10204000AB6B0000AB6B0000AB6B0000C12E00005F
:1020500025690000AB6B000019440000AD6B000067
:10206000AB6B0000A94B0000AB6B0000AB6B00003A
:10207000AB6B0000AB6B0000B94B0000AB6B00001A
:10208000AB6B0000AB6B000071390000AB6B000064
:1020900000000000AB6B0000AB6B0000712E000075
:1020A000AB6B0000AB6B0000AB6B0000AB6B0000D8
:1020B0000000000010B5064C2378002B07D1054B1B
:1020C000002B02D0044800E000BF0123237010BDA4
:1020D0002003002000000000E4040100044B10B5C0
:1020E000002B03D00349044800E000BF10BDC046E8
:1020F0000000000024030020E404010030B5094D75
:10210000094CAB685B035B0F9B001C590460AB6818
:1021100001619BB243606343A4008360C460426179
:1021200030BDC0460040004100F60000F7B58026F3
:1021300044690191E51C194CAD0867683E4366602F
:10214000002D29D0164E2680267DF107FCD52E00C5
:102150000768A91BBF088F4217D9002E15D0FF2191
:1021600017788B433B430F4957780B403F023B4363
:1021700097789BB23904D7780B433F0601993B43CC
:1021800008C101910432013EE2E7074D2580257D1B
:10219000E907FCD53500D3E7F7BDC0460040004154
:1021A00044A5FFFFFF00FFFF04A5FFFF030010B5DC
:1021B00010005A6908F018FB10BD0000F8B5812521
:1021C0000400071D0A483A000169ED00FFF7EEFF21
:1021D000084E6359B34206D08022FF213800D20056
:1021E00008F01EFB66510123034AA3542370F8BD77
:1021F0008C030020EDDEEDFE04040000044B054AD4
:102200004908D9611A801A7DD207FCD57047C046AB
:102210000040004102A5FFFF70B504000D0016004C
:10222000E36829002000B34205D2FFF7E7FFE36827
:10223000ED18F61AF4E7FFF7E1FF70BD024B1968DD
:10224000024B18687047C0460CA0800010A08000A8
:1022500010B50100014800F0F6FD10BDEC080020AB
:1022600037B5254D2549280002F03EFD00211020FC
:1022700004F0CEFF01210F2004F0CAFF01210F203E
:1022800004F0F6FF6420FFF7E3FF002004F004FFF2
:10229000102004F045FF06F007FA011C05F076FB5C
:1022A000174905F0D9FEEA21890505F0D5FE154C40
:1022B000030A20726372030C000EE07212492800B8
:1022C000A37202F0F6FC637A207A1B020343A07A21
:1022D00000040343E07A0006184308F039F80B00C5
:1022E000032102000091280002F04DFE00210F2082
:1022F00004F0BEFF37BDC0466C11002040EE000068
:1023000033335340000000204AEE0000F0B585B0A2
:102310001F000AAB1E7815000400039104F0D4FFDF
:1023200001210290200004F073FF3100200004F02E
:102330009FFFAF20800004F0B1FC380064216843A7
:1023400005F018F9002301900093009B039A934233
:1023500014DA01212000714004F08AFF114F290096
:10236000380000F070FD3100200004F081FF3800DB
:10237000019900F068FD009B0133E5E7280007F0B4
:1023800091FF0022084B07F03BF905F0E1FA01004C
:10239000044800F058FD2000029904F069FF05B0E0
:1023A000F0BDC046EC0800200000F83F07B5130060
:1023B000002200920A0001000F20FFF7A7FF07BDCF
:1023C00010B5040002F0D0FB044B0833D877002C82
:1023D00002D0034801F072FF10BDC046000000208B
:1023E0001C09002070B58AB00C00150006001A49BF
:1023F00001A804F022FB6519AC421FD023780F2BF3
:1024000003D8164901A804F086FB1022217804A8FD
:1024100004F051FB04A907A804F032FB104907A8F7
:1024200004F086FB010001A804F06FFB07A804F08C
:10243000BCFA04A804F0B9FA0134DDE7039B0022DA
:102440003000013B01A904F087FB01A804F0ADFABC
:1024500030000AB070BDC046AAFE0000C0040100F2
:1024600051EE000073B5404D4049280002F03CFC9D
:102470000021092004F0CCFE0121032004F0C8FE55
:102480000121032004F0F4FE0A20FFF7E1FE0920F9
:1024900004F046FE06F008F9354905F0DDFDEA21B5
:1024A000890505F0D9FDFC21890505F0EFFE3149CC
:1024B00005F0D2FD304C314E030A20746374030CD6
:1024C000000EE0743000A37402F098FAFA212C4850
:1024D000490000F0B8FC300002F03CFB030A207514
:1024E0006375030C000EE0753000A37502F0EEF981
:1024F0000021032004F0BCFE2800224902F0D9FB91
:10250000637C207C1B020343A07C0226000403435F
:10251000E07C0006184307F01BFF009602000B004A
:10252000280002F029FD280002F0CCFB2800164903
:1025300002F0BFFB637D207D1B020343A07D0004EE
:102540000343E07D0006184307F002FF00960200F7
:102550000B00280002F010FD280002F0B3FB280059
:102560000A4902F0C1FB73BD6C11002063EE00004C
:10257000333353400000C842000000203C030020D9
:10258000EC08002057EE000053EE00005EEE000065
:1025900070B504000D0042690169FFF73DFE2A0095
:1025A00020002169FFF7C2FD70BD0000F0B5314F7A
:1025B00087B0029003913049380002F07AFB022381
:1025C00038000093029A039B02F0DDFC2B4B2C4C4D
:1025D00005932378002B02D12000FFF7EFFD059B28
:1025E000284E6360A35D284D002B3DD000230122BF
:1025F0006355264B26492748E254FFF7C9FF237845
:10260000002B02D12000FFF7D9FD0023224A02A8A7
:10261000195CD1540133082BFAD1A35D002B26D0CD
:10262000002301226355194B19491A48E254FFF758
:10263000AFFFA35D002B15D13800184902F054FB01
:102640002378002B02D12000FFF7B8FD635D002B3B
:1026500008D00023012263550C4B0D490D48E2546C
:10266000FFF796FF07B0F0BD01236355C7E70123CD
:102670006355E1E76C11002077EE0000EDDEEFBE60
:10268000A40300200D0400000C040000040400005A
:10269000A80300208C030020AC0300208FEE000074
:1026A00070B504F0C5FA022105000D2004F0B0FD5C
:1026B000114C1249200002F0FCFA0D2004F004FE37
:1026C0000F49012800D00F492000FA2602F00CFB28
:1026D00076000D2004F0F8FD00280CD104F0A8FAD3
:1026E000401BB042F5D90849200002F0FDFA002055
:1026F0000649FFF75BFF70BD6C110020B8EE0000CB
:10270000B1EE0000B5EE0000BEEE00000000F0BF2C
:102710001FB50022144B154C029203932378002B13
:1027200002D12000FFF74AFD6368114A01939342EA
:102730000BD01049104802F0D7FA00200A49FFF7E1
:1027400035FF0298039904B010BD2378002B02D105
:102750002000FFF733FD0023084802AAC15C99540A
:102760000133082BFAD1ECE70000F0BFA4030020EE
:10277000EDDEEFBEEDEE00006C110020AC0300209A
:10278000F7B56549654802F0AFFA0021082004F06A
:102790003FFD00210A2004F03BFD0121042004F04C
:1027A00037FD0021042004F063FD0121080004F03E
:1027B0002FFD0121080004F05BFDC82004F06EFA33
:1027C0000121042004F054FD0A2004F07DFD0028BE
:1027D000FAD00A2004F078FD0128FAD0504A0121ED
:1027E0000A2004F0DFFA4F4C030A20716371030CD6
:1027F000000E0021E0710420A37104F039FDFFF701
:1028000087FF0022002306000F0005F03FF8002894
:102810001FD0637920791B020343A0790A250004A5
:102820000343E0790006184307F06CFD3E4B00229D
:102830000090019106F0DEFA05F08AF896236843CD
:10284000DB00984240D800203749FFF7AFFE002652
:10285000354F637920791B020343A07900040343B9
:10286000E0790006184307F04DFD32003B0006F00A
:10287000C1FA05F06DF80A235843030A207063700B
:10288000030C000EE07000210120A37004F0F0FCA6
:102890006278237812021A43A37861791B041A43E1
:1028A000E37809021B06134322791C481143A279DD
:1028B00012041143E27912060A431C4902F01EFA7F
:1028C000164802F0FFF9F7BD194B00220098019954
:1028D00006F090FA05F03CF896236843DB00984236
:1028E00006D800201249FFF761FE0026104FB0E71E
:1028F000104B114A0098019906F07CFA05F028F86F
:1029000096234543DB009D42A3D80B480949FFF7B6
:102910004DFE094E074F9CE70EEF00006C110020A2
:1029200080841E0000000020000024401FEF0000F3
:1029300000004D40DFEF4C40FCFD7EBF812210B512
:102940000A49D2000A48FFF7D9FB00228021094B2F
:1029500049001A70084A094899521322084BFA395B
:1029600001F05EF8074801F0A1FF10BD00F1000082
:102970008C030020A40300200C040000B8070020F2
:10298000F80800203C030020F8B54D4C05004D49E7
:10299000200002F0A9F94C4F002D5BD03E78002EAC
:1029A00052D10125494920003D7002F09DF93100C6
:1029B0000C2004F02DFC29000C2004F059FC6420AC
:1029C000FFF746FC31000C2004F052FC0A20FFF710
:1029D0003FFC29000C2004F04BFC0A20FFF738FCD8
:1029E0003B49200002F080F93A4D280001F074FACA
:1029F0003949280001F09EF832001721280001F023
:102A000001FA0321280001F045FA3449200002F0C0
:102A10006BF9200002F083FCF0224121280000F035
:102A2000E8FD3F224021280000F0E3FD2C49200072
:102A300002F05AF9200002F072FC280000F0D2FFE8
:102A40002000284902F050F92000264902F04CF9F4
:102A50003878F8BD3B78002BF6D0290018203D705F
:102A600004F0D6FB2900182004F002FC03211720F3
:102A700004F0CEFB2900172004F0FAFB29001620F1
:102A800004F0C6FB2900162004F0F2FB2900062002
:102A900004F0BEFB2900062004F0EAFB2900132005
:102AA00004F0B6FB2900132004F0E2FB29000C20FF
:102AB00004F0AEFB29000C2004F0DAFBC4E7C046AA
:102AC0006C110020A3EF0000B40700203EEF0000CF
:102AD00063EF0000B80700200080D84370EF0000CB
:102AE00087EF00009EEF00007FB5642200231100F5
:102AF0000720FFF75BFCFFF7A1FB3A4D020A2B0012
:102B0000EA76020C2A770A0A1A33A977EA770A0CBE
:102B1000090ED9719621344CA876000E6877C90148
:102B200020009A7102F084FC04F082F8FA23DB00A2
:102B3000C618200002F07EFC002808D104F078F8C6
:102B4000B04204D2FA21294800F07DF9F1E7FFF7FD
:102B5000A7FD2000264902F0ACF82900082201A8B0
:102B60001A31FFF73FFC01A9200002F0B3F8214D14
:102B700001A803F01AFF20001F4902F08FF82978FE
:102B80000A2249062000C90F02F023F920001B4940
:102B900002F084F8202329780A221940200002F04C
:102BA0002CF92000164902F079F829780A22C90682
:102BB0002000C90F02F00DF92000124902F06EF852
:102BC00029780A22C907C90F200002F002F9200063
:102BD00002F078F80120FFF7D7FE0120FFF7F0FBA5
:102BE0007FBDC046000000206C110020EC080020D2
:102BF000B6EF000038040040CEEF0000D5EF000033
:102C0000DBEF0000E1EF000070B505001D4C1E4930
:102C1000200002F069F81D4801F02DFA0020FFF7AE
:102C2000CFFB0020FFF7B0FE2000194902F041F869
:102C30000A222900200002F0BCF81649200002F008
:102C400053F8200002F06BFB2900134800F00BF949
:102C50001249200002F048F80120FFF7B1FB0120E3
:102C6000FFF792FE20000E4902F03EF80D4A0023C5
:102C70001100283223310B704B708B70CB701370A6
:102C800070BDC0466C110020E7EF00001C09002059
:102C9000F8EF000011F00000EC08002014F0000034
:102CA00029F0000000000020F8B5244C2700283748
:102CB0003B78002B41D1224D2249280001F0F9FF39
:102CC0000A222221280002F08EF8FFF7B7FA23002B
:102CD000020AE276020C1C4E22770A0A1A33A07608
:102CE000A177000EE2770A0C090E9A71D97122229F
:102CF00021006077300001F047F8637E227E1B02DE
:102D0000134301339AB2120A0A2023766276FFF740
:102D10009FFA0E49280001F0E7FF300000F0D0FADA
:102D2000300000F05FFE0A49280001F0DDFF2800B6
:102D3000084901F0D9FF01233B70F8BD00000020D5
:102D40006C11002037F00000B807002061F000008F
:102D500072F0000084F0000010B5FFF781FAFFF771
:102D600081FBFFF70DFD074BDA1CD27F002A05D14E
:102D700028331B78002B01D1FFF796FF0248FFF79D
:102D800043FF10BD00000020A0BB0D000421054A38
:102D900013698B4313610222034B5A70BFF34F8FA9
:102DA00030BF704700ED00E00004004070B51248ED
:102DB00002F040FB114C002819D0200002F06CFDFD
:102DC000002002220E4B0F4D196891431960042117
:102DD0002E6931432961BFF34F8F30BF19680A4311
:102DE0001A60002802D0200002F0E2FD70BD200031
:102DF00002F01AFE0120E4E76C1100208811002087
:102E000010E000E000ED00E070B5057804000E0071
:102E1000002D06D1290000F0AFF92900200000F0B4
:102E20006FF8200000F00CF9FA210500890030004D
:102E300004F0A0FB4119200000F02AF9062120002F
:102E400000F04CF870BD10B50400FFF7DDFF200066
:102E5000FFF79CFF10BD10B50400FFF7D5FF200061
:102E6000FFF7A4FF10BD10B5FFF7F5FF10BD000080
:102E70000423044A10B5117E0B431376024B5B68A2
:102E8000984710BD00400042EC08002010B50248F1
:102E900000F012F810BDC046EC080020002805D054
:102EA000034B044A5A809A7AD209FCD17047C04633
:102EB000001400400080FFFF0023037070470000F3
:102EC000044B10B51B68002B00D098470122024B21
:102ED0001A7210BDF40800200014004003780A00A4
:102EE000002B09D00720054B0240197F8143114375
:102EF00019779A7AD209FCD17047C0460014004075
:102F0000014B19607047C046F408002003780A009E
:102F1000002B09D03F20054B0240996981431143A2
:102F200099619A7AD209FCD17047C04600140040DA
:102F30000378002B0BD03F20054B01409A690548D0
:102F400089010240114399619A7AD209FCD17047F4
:102F5000001400403FF0FFFF0378002B0BD01F2030
:102F6000054B01409A6905480903024011439961E4
:102F70009A7AD209FCD1704700140040FF0FFEFF7F
:102F800070B50D001900037804001600002B09D05D
:102F9000FFF7BCFF31002000FFF7CAFF2900200027
:102FA000FFF7DAFF70BD00000378002B0BD01F2065
:102FB000054B01409A690548490402401143996153
:102FC0009A7AD209FCD1704700140040FFFFC1FF7C
:102FD0000378002B0BD00F20054B01409A69054860
:102FE00089050240114399619A7AD209FCD1704750
:102FF00000140040FFFF3FFC03780A00002B09D0BB
:10300000054B9206996989018909114399619A7A58
:10301000D209FCD17047C0460014004070B51D00B5
:10302000037804001600002B09D0FFF7BDFF310024
:103030002000FFF7CDFF29002000FFF7DDFF70BD66
:1030400000B500788BB0FFF729FF01220F4B5242E9
:103050001B6909920022089207929A0E6432069226
:103060009A01120F013A05929A02D20E0492DA03E3
:10307000D20E03921A059B06920E9B0E01A8029295
:10308000019307F09BFC0BB000BDC046001400404C
:10309000037837B50500002B1ED0104B994200D2A3
:1030A0001900002368460091019307F079FA0400A3
:1030B00043690269C168643B01322800DBB2D2B2C5
:1030C000C9B2FFF7ABFF23686268A1682800DBB2D2
:1030D000D2B2C9B2FFF754FF37BDC04680436D3846
:1030E000094B0A4A9A605A7852B2002AFBDB084A16
:1030F0005A605A7852B2002AFBDB064A5A805A7844
:10310000D209FCD17047C046000C00400204000008
:1031100002051100044200000221044B1A888A4370
:103120001A809A7AD209FCD17047C0460014004038
:103130000222044B19880A431A809A7AD209FCD1D8
:103140007047C046001400400122044B19880A430E
:103150001A809A7AD209FCD17047C0460014004008
:103160000121044B1A888A431A809A7AD209FCD129
:103170007047C046001400402023F7B500272A4AB4
:103180000E00916905000B439361284B284A294C96
:103190009A82BE420BD1284B37001A7870231A420C
:1031A00005D023881B0702D5012723690193280036
:1031B000FFF796FF2800FFF7AFFF2800FFF7C4FFD7
:1031C00063881E4A134063801D4B2380A37ADB096A
:1031D000FCD1C0211B4A08331360890053581B02DD
:1031E0001B0A53500123E27913430722E371237F23
:1031F00093432377A37ADB09FCD12800FFF798FFDC
:103200002800FFF7ADFF002E0BD1002F09D0019B46
:10321000002B06D02361A37ADB09FCD101332B708C
:10322000F7BD8423DB03F5E70004004000080040FD
:10323000CE0600000014004038040040FFBFFFFF2E
:10324000080A000000E100E00120704700207047FC
:103250008171704741717047C17270470173704747
:1032600041737047837B9343194381737047C079DF
:10327000C0B27047007AC0B27047407AC0B270479F
:10328000807AC0B27047008A00B270470079C0B23D
:10329000704701717047408A80B27047808A80B25F
:1032A0007047C08A80B2704710B5040023682000C0
:1032B0005B689847002802D103F010FDF6E710BDC7
:1032C00010B504002379032B02D103F007FDF9E7C1
:1032D000012010BD70B504000E0003F0A9FC05002C
:1032E00003F0A6FC401BB04208D2236820005B68B4
:1032F0009847002803D103F0F1FCF1E7002070BDEE
:1033000070B505000E0003F093FC040003F090FC80
:10331000001BB04205D22B79032B04D103F0DEFC55
:10332000F4E7002070BD0120FCE7C36970B504001C
:10333000002B17D003F07CFC6426050023682000D6
:103340009B6A984700280DD003F072FCE369401B8C
:10335000984209D80A21012003F01DFB704303F0B5
:103360009DFCEBE7012070BD0020FCE7084BFF222D
:10337000083303600023037142714382C272838267
:1033800082818373C382C361036243627047C04614
:1033900020F60000704770477047704770474171D2
:1033A0007047817170470171704770B505000C005E
:1033B0008E18B44206D02B68217828001B689847E5
:1033C0000134F6E770BD000010B5034C083404600A
:1033D00001714271837110BD98F6000010B502486A
:1033E00000F0A4FE10BDC0461C09002010B5024824
:1033F00000F0A1FE10BDC0461C09002010B5024817
:1034000000F0A7FE10BDC0461C09002010B5024800
:1034100000F0A0FE10BDC0461C09002010B50279C6
:10342000042A26D0032A26D0022A26D0013A534263
:103430005A41154B52421A40D21843798179013BC7
:1034400000291CD001291AD0022918D0032916D02E
:1034500059424B410021DBB2140A02724472140C2F
:10346000120E8472C27201734373084800F026FF83
:1034700010BD074AE1E7074ADFE7074ADDE75C429C
:103480006341DBB2E8E7C04640420F001C09002060
:103490000024F40000127A0000093D0010B5024833
:1034A00000F0E9FD10BDC0461C09002010B5816880
:1034B000C268024800F00AFE10BDC0461C09002088
:1034C00010B5024800F01EFE10BDC0461C090020C9
:1034D00010B5024800F0D8FD10BDC0461C09002000
:1034E00010B50400FFF770FF044B20000833236081
:1034F000034BA3600023A38110BDC046D0F600009B
:1035000000093D00002310B51A0019000148FFF71B
:10351000E7FF10BDF808002072B6BFF35F8FBFF35E
:103520004F8FBFF36F8F0120704710B50400806A82
:103530002C3403681B6998472078012103F068FE4A
:103540000121207803F094FE642003F0A7FB012002
:1035500010BD80F31088BFF35F8FBFF34F8FBFF3B1
:103560006F8FBFF35F8FBFF34F8FBFF36F8F7047C6
:1035700070B504000D001600FFF7F8FE044BA662BC
:103580000833236023002C3320001D7070BDC0461B
:1035900008F700007F23F0B5002685B003AD194081
:1035A000040029706E70EFF31087FFF7B5FFB0428B
:1035B00019D0A06A03685B6A984723002C330193F3
:1035C0001878310003F054FEA06A02220368290033
:1035D0005B689847019B0121187803F049FEA06AB7
:1035E00003689B6A98473800FFF7B3FF687805B017
:1035F000F0BD8023F7B55B4201AD0B4304002B7097
:103600006A70EFF31086FFF787FF002817D02700B6
:10361000A06A2C3703685B6A98470021387803F06A
:1036200027FEA06A0222036829005B689847387861
:10363000012103F01DFEA06A03689B6A98473000D1
:10364000FFF787FF2878FEBDF0B585B004001600AF
:1036500002910393EFF31087FFF75EFF0025A84266
:103660002AD0A06A03685B6A984723002C33019331
:103670002900187803F0FCFD7F21029BA06A0B4013
:10368000190003681B6898470500039BF318029311
:10369000029B9E4207D0A06A002103681B689847DE
:1036A00030700136F4E7019B0121187803F0E0FD4A
:1036B000A06A03689B6A98473800FFF74AFF280012
:1036C00005B0F0BDF0B585B004000E000292039382
:1036D000EFF31087FFF720FF0025A8422AD0A06A49
:1036E00003685B6A984723002C33019329001878FC
:1036F00003F0BEFD8021A06A4942036831431B6884
:10370000C9B298470500029E039BF3180293029BDF
:103710009E4206D0A06A3178036801361B6898473C
:10372000F5E7019B0121187803F0A2FDA06A036868
:103730009B6A98473800FFF70CFF280005B0F0BDE2
:1037400010B5806A0368DB6A984710BD030010B5A6
:103750002A330400187803F0B7FD431E98412D3436
:103760002378584010BD10B52B30007803F080FD51
:1037700010BD030010B52E331B782C300078594053
:1037800003F076FD10BD10B503790400022B08D0BC
:103790000021FFF7EEFF00212000FFF7E4FF0223E6
:1037A000237110BD082388101840030010B5064A85
:1037B0000833984205D0145C8C4203D00130C0B26B
:1037C000F7E7002010BDC04680F70000F8B5040000
:1037D000FFF7BCFF002805D02200323213780133F6
:1037E000DBB213702100230031310A783333824277
:1037F00052D01A780B254F2A00D912351A7852194F
:10380000D2B21A7008701A789F2A44D92100E28E29
:1038100032315208E2860A78042A04D98022E08EE6
:1038200012010243E2861A7825006032D2B21A7081
:10383000002334350B702A78D3B2002A48D02600F2
:10384000383633780133DBB233700B2B23D93F2367
:10385000E18E20001940FFF7A5FFE18E07008909DE
:10386000C9B22000FFF79EFF210022007D313F01F9
:103870000B783843C0B27C32002B12D11070137811
:10388000062B02D91378432B0BD900232B70638AA4
:1038900001339BB26382F8BD1A781432D2B21A7027
:1038A000B1E70B785F1CE3183933FFB20F70187063
:1038B00009781378994208D300232B702300012242
:1038C0002F3320001A70FFF75EFF00233370E2E70A
:1038D000E18E054A9142DED101222A7022007D3418
:1038E000383213702370D6E7380B0000F7B50500A7
:1038F00080352F7804007B1C2B70002F0ED1030025
:1039000002007E330193FF321B78127C9A420BD85F
:10391000FFF739FFE38A01339BB2E3822B78072B51
:1039200001D900232B70F7BD0600C3187F36813301
:10393000197833785A1C1941012332701940FFF766
:1039400012FF3378052BE9D9019B37701B78019A58
:1039500001331370E2E7037910B5042B02D1FFF7AE
:1039600035FF10BD0379032BFBD1FFF7BFFFF8E74D
:103970001023054A10B5917B0B439373034B1868D2
:10398000FFF7E9FF10BDC046002C004208090020E7
:10399000FB20704710B503790400052B0AD00722DD
:1039A0000121FFF726FE802240212000FFF721FEA3
:1039B000052323712379052B02D103F08FF9F9E751
:1039C000207EC0B210BD80F31088BFF35F8FBFF3BD
:1039D0004F8FBFF36F8FBFF35F8FBFF34F8FBFF377
:1039E0006F8F704710B503790400012B05D00022BA
:1039F0000121FFF7FEFD01232371012010BD006AA4
:103A000010B5002802D003689B68984710BD406A33
:103A100010B5002802D003689B68984710BD0000CD
:103A200070B5040015001A00FFF7A2FD064B002236
:103A3000083323603023FF33E2542300FF322D3359
:103A400020001D705A7070BDA0F70000030010B573
:103A50002F331B780400032B25D9030030331B7848
:103A6000C371030031331B780372030032331B78B8
:103A70004372030033331B7883728379002B06D1A2
:103A8000C37942799A4202D0C379FF2B0BD101212D
:103A90002000FFF7BCFFA38A012201339BB2A3825F
:103AA0003023FF33E25410BD10B5EFF3108472B62B
:103AB000BFF35F8FBFF34F8FBFF36F8F30230021B2
:103AC000FF33C15403002F331970FFF7A0FF20000C
:103AD000FFF779FF10BD0368F7B55B6804000E00BF
:103AE000150098470190002822D0002E1DD0002DEF
:103AF0001BD0EFF3108772B6BFF35F8FBFF34F8F0A
:103B0000BFF36F8F22002F3213782978033B8B424B
:103B100002DC1378043B2B70210030002A7834310A
:103B200006F062FE3800FFF74EFF2000FFF7BCFFF3
:103B30000198FEBD70B50500081C0E1C06F008FCBF
:103B40000022134B05F05CFD124B002205F052F9E8
:103B500003F0FEFE0400020C06212800D2B2FFF79B
:103B600048FD220A28000721D2B2FFF742FD2800B3
:103B7000E2B20821FFF73DFD301C074903F0DEFEED
:103B8000431E984198235B00E854012070BDC04655
:103B900080842E4180844E4000C0424410B5037999
:103BA0000400022B05D001221100FFF722FD0223A1
:103BB000237110BD70B512210400FFF7EBFC1C212E
:103BC00005002000FFF7E6FC2379042B15D1A02285
:103BD0008009033B83432A4013430ED0638A013399
:103BE0009BB26382FF2212212000FFF702FDFF2219
:103BF00012212000FFF7FDFC70BD2379042B01D1B9
:103C00006B060DD42379032B01D12B0760D42379C4
:103C1000052BE7D16B07E5D501200540257647E068
:103C200013212000FFF7B6FC102105002000FFF74C
:103C3000B1FC0D2102002000FFF7DBFC22002B006D
:103C4000002130322000FFF7FFFC23002F331D70CE
:103C5000FF2212212000FFF7CCFC19212000FFF7E2
:103C600099FC0322322543B2D8171040C0188010A7
:103C7000FF3560551A212000FFF78CFC00B220822E
:103C80006257002A18DA238A9B181BB223829823D2
:103C90005B00E35C002B18D0238A9D3B1BB2238280
:103CA0002000FFF7D3FE3023FF33E35C002B99D0D5
:103CB0002000FFF773FF95E7208A0F2100B2000173
:103CC00003F0E2FC00B22082E1E7238AA43BE5E7AF
:103CD00000212000FFF793FEE38A01339BB2E382C9
:103CE000E6E70000034B10B51868002801D0FFF785
:103CF00061FF10BD10090020034B10B55868002863
:103D000001D0FFF757FF10BD10090020034B10B57D
:103D10009868002801D0FFF74DFF10BD1009002062
:103D200010B503790400042B0AD005220121FFF706
:103D300060FC002240212000FFF75BFC042323717C
:103D400010BD10B5037904000020032B06D020001D
:103D5000FFF7E6FF3023FF33E05CC0B210BD10B5C3
:103D600003790400032B0ED00121FFF748FE032244
:103D700001212000FFF73DFC402220001100FFF749
:103D800038FC0323237110BDF8B504000F001500A3
:103D9000FB2A02D900263000F8BD03689B699847CA
:103DA0002000FFF7FBFE236820005B6A9847061E91
:103DB000F0D000220D212000FFF71BFCE27A002149
:103DC0002000FFF716FC227B00212000FFF711FCEA
:103DD000627B00212000FFF70CFCA27B0021200069
:103DE000FFF707FC2B003A0000212000FFF76AFCD8
:103DF0002A1D22212000D2B2FFF7FBFB2000FFF793
:103E0000AEFFC8E770B505000C00002A12D00A1CEE
:103E100000290ADA154B1A78702301321A43280058
:103E20000921D2B2FFF7E5FB70BD4BB20E2BF3DDDB
:103E30000E22F1E717290FDC04290FDD14290EDD0E
:103E400007224D212800FFF7D4FB033C64B28022F7
:103E5000053C52422243E2E71724F1E705240422FD
:103E60004D212800FFF7C5FBF1E7C04690F70000A1
:103E700070B50D0004000A781D21FFF7BAFB6A78BF
:103E80001E212000FFF7B5FBAA7826212000FFF7AE
:103E9000B0FB70BD13B50400002004290BD8032229
:103EA0005143054B01A8591806F09EFC200001A9BA
:103EB000FFF7DEFF012016BD91F7000070B5050089
:103EC0000C000A0A2021FFF794FB28002121E2B20E
:103ED000FFF78FFB70BD0000F8B50400FFF725FB6E
:103EE000051E02D100252800F8BD27002D373E7899
:103EF00020003100FFF724FC012180222000FFF781
:103F000078FB0A2002F0CAFE01212000FFF742FBE5
:103F10008028E7D10021387803F07AF923002E3386
:103F20001A78FF2A06D11D490A78032ADAD8501CCC
:103F300008701A701B781A4A99008C50002B23D1F4
:103F400004221849300002F02BFC00220E21200030
:103F5000FFF74FFB00220F212000FFF74AFB200054
:103F6000FFF71CFE00212000FFF794FF200008212E
:103F7000FFF7A4FF20000C49FFF7DCFD00220D2114
:103F80002000FFF73FFFAEE7012B02D104220749D3
:103F9000D8E7022BA6D104220549D3E70C0900205B
:103FA00010090020E53C00000000D943F93C000066
:103FB0000D3D000010B500F07BFB0022024B80009D
:103FC000C35849331A7010BD70090020F0B50400C1
:103FD00085B01E000AAB1B78103001930BAB1B7829
:103FE000170002930CAB1B780D00039300F0E2F96D
:103FF0002000243000F0DEF9220000234832A363C1
:10400000E363236463641370537063729D4205D14C
:104010002721084B084A094806F094FA2000019B22
:1040200025606371029B2771E371039BA671237264
:1040300005B0F0BD18F8000029F800007DF8000078
:1040400030B5040085B002AD00680291039201F022
:1040500047F86B79227AE17920680093002301F018
:1040600023F92979029A206801F05EF8206801F0AE
:104070002DF805B030BD10B50400006801F019F846
:104080000023637210BD000010B54B1C0BD010292B
:1040900009D0EFF3108472B6102905DD0223837274
:1040A000002C00D162B610BD0123827A1A438272BD
:1040B00018224A430449891816228A569340C26836
:1040C0001343C360ECE7C0462CF9000007B5837AC0
:1040D00000910192002B07D09A070AD5EFF31083C5
:1040E0005A425341C37272B60099019AFFF7A8FF72
:1040F00007BDDB07F8D5C368014A9BB29360F3E7BD
:1041000000180040837A002B05D09A0704D5C37AA3
:10411000002B00D062B67047DB07FCD5C368024AAB
:104120009BB2D360F7E7C0460018004010B50068A6
:1041300000F0DFFF10BD70B505000C008E18B44212
:1041400006D021782800FFF7F1FF20700134F6E750
:1041500070BD70477047000010B5006800F0F8FFB0
:1041600003000020834203DB0C304343014A98588C
:1041700010BDC046E4F8000010B5006800F0E8FF8C
:10418000002805DB0C2343430348C018406810BDDA
:1041900001204042FBE7C046E4F8000010B500688B
:1041A00000F0D6FF002805DB0C2343430348C0186A
:1041B000806810BD01204042FBE7C046E4F80000E3
:1041C000F0B506001036050089B0300000F048F95F
:1041D00000286CD12F002437380000F041F9041E6C
:1041E00062D12800FFF7DAFFC1B2300000F018FA00
:1041F0000221300000F038FA01222E49300000F090
:104200000BFA300000F054FA2B4B8000C550280008
:10421000FFF7B2FFC1B2380000F002FA0221380005
:1042200000F022FA380000F043FA234B8000C5501A
:104230002800FFF791FF01230100220002933000C4
:104240002300049403940194009400F033FAA863CB
:104250002800FFF781FF01230200210001933800AD
:104260002300049403940294009400F023FAE8637A
:10427000402006F0A5FA2A00483228640792002858
:104280000BD00123137068646B6C10221819E96B52
:10429000103406F0A9FA402CF6D1079B1B78002BAE
:1042A00005D1380000F076F9300000F073F909B05C
:1042B000F0BDC046B53F00007009002070B5437ADC
:1042C0000400002B03D1012243814272C36023000A
:1042D00048331B78002B02D12000FFF771FF18260E
:1042E0003300082120790D4D4343EB18595603F054
:1042F00003F833000821A0794343EB18595602F024
:10430000FBFF082160794643AD19695602F0F4FFBE
:10431000034B200006CBFFF793FE70BD2CF9000085
:10432000680900201FB5094A094B0A491360002398
:1043300093800293013301931633009316220133C5
:104340000548FFF743FE05B000BDC04668090020E0
:1043500000093D00641100201C090020084B196869
:10436000002909D1EFF31080064A002803D172B664
:10437000BFF35F8F013111701A6801321A60704704
:10438000280B0020240B0020084B1A68002A0CD0B0
:104390001A68013A1A601B68002B06D1044B1B787F
:1043A000002B02D0BFF35F8F62B67047280B00204E
:1043B000240B0020FF2310B50370C023002104004C
:1043C0009B004170418083800C22083006F028FA5F
:1043D000200010BD01230A0010B51A40194208D070
:1043E0000C4A1370033343708368002B00D0984746
:1043F00010BD0223194204D006490B70C3684270F5
:10440000F3E704231942F3D0024A137003334370D5
:104410000369EAE74E48004110B5FFF79FFF0C4BD8
:104420001B8C1B071B0F0B2B0FD80A4A99008858AF
:1044300000280AD00F2408490A78A24313430B70BE
:10444000064B1978C9B2FFF7C5FFFFF79DFF10BDF6
:10445000004800412C0B00203F4800414E480041DD
:10446000F8B500230278050018000B2A77D93C4ED6
:104470002B702B780B2B07D801229A403168114200
:1044800004D001332B70F4E7012068E0FFF766FFEA
:104490003768344C002F2BD12022334B33485969D5
:1044A0000A435A611022D9690A43DA610222238839
:1044B0003900934323802388013A134323802C4BF4
:1044C0006063BF32A36306F0ABF9C022390028480D
:1044D00006F0A6F94022C120264B80002380264BFF
:1044E00026491A601A581140C02212040A431A5071
:1044F00001231A00297830688A40024332600F266F
:104500001F4A880085501F4831400278B2430A4351
:10451000027002201C4A11788143117011781943EE
:104520001170297822698B409A43226160223F21D1
:10453000636C934363642A79636C0A4013491202E3
:104540000B400321134363646A79636C0A4010498A
:1045500092050B4013436364FFF716FF0020F8BD7C
:10456000200B00200048004100040040600A0020A9
:10457000A0090020020F000000E100E0FFFF00FFA3
:104580002C0B00203F48004140480041FFC0FFFF86
:10459000FFFF3FFF70B50500FFF7E0FE6B785CB2F0
:1045A000062B2BD02B7802240B2B27D801229A40E4
:1045B000144B1968114221D01968914319601B6886
:1045C000002B14D14022104BDA67BFF34F8FBFF39B
:1045D0006F8F21000D4A0E311388A34313800C4BBB
:1045E000DA698A43DA615A6910318A435A610024D0
:1045F0002B78084A9B009C50FF232B70FFF7C4FECA
:10460000200070BD200B002004E100E000480041C4
:10461000000400402C0B0020023292001150704721
:10462000037870B505000C0001710B2B14D8FFF74F
:1046300095FE29780F25094829400378084AAB439D
:104640000B4303703F23516C1C40064B240219405E
:104650000C435464FFF798FE70BDC0463F480041CC
:1046600000480041FFC0FFFF037870B505000C0053
:1046700041710B2B14D8FFF771FE29780F250948DB
:1046800029400378084AAB430B4303700323516C62
:104690001C40064BA40519400C435464FFF774FEFC
:1046A00070BDC0463F48004100480041FFFF3FFF4A
:1046B00000787047F0B587B001930CAB1E780DAB56
:1046C0001B78050002930EAB1B780078039310ABA8
:1046D0001F78049105920B2802D9002007B0F0BD85
:1046E0006B78062BF9D0AB78002B00D179E0102144
:1046F000080006F05BF80028EFD02B783B4A1B013E
:104700009B181A00D168002904D0D1688B4201D0CF
:10471000D268F7E7D06001220223AA70964203D044
:10472000DB18022E00D013000624018811430180FB
:104730000188A143018001881234A1430180153C06
:10474000018826402A4C360221400E430680029EF4
:104750000188284C16402140B6020E430680039E75
:104760000188254C16402140F6020E430680018840
:10477000224E3A40314012030A43072102800F9A29
:10478000114002884903D204D20C0A4302806A46CF
:1047900092884280049A4260029A002A08D0019AC4
:1047A00041685A43002F01D00F9CA2408A184260F2
:1047B000059A8260039A002A09D0019A84685A43B4
:1047C0001300002F01D10F9A9340E3188360002358
:1047D000EA789A4203D02B78044A1B019B18C360E5
:1047E0007CE7024B0001C01895E7C046600A002034
:1047F000FFFCFFFFFFFBFFFFFFF7FFFFFFEFFFFFE8
:10480000F0B5040085B0080003F04EFF6568009025
:10481000291CE06803F03AFDE6690290311C206A29
:1048200003F034FD011C029803F04CFA6369071C85
:104830001D490098019303F045FA311C03F026FD51
:10484000391C03F009FC291C03F0A0F8291C03F013
:104850001DFD01990390A06903F018FD011C039848
:1048600003F0FAFB029903F02DFA019903F08EF898
:10487000009903F0F1FB0C4903F024FA311C03F01A
:1048800005FD391C03F0E8FB291C03F07FF8230029
:1048900044331B78002B05D0E16C03F0F7FCA16CCE
:1048A00003F0DAFB05B0F0BD00F07F457047000073
:1048B0000223044A116C0B431364034A537EDB0941
:1048C000FCD1704700080040004000420221044A29
:1048D000136C8B431364034A537EDB09FCD170478E
:1048E000000800400040004210B508000C0003F032
:1048F000DBFE092C03D8054903F0E4F910BD632C55
:1049000001D80349F8E70349F6E7C0460000204113
:104910000000C84200007A44F7B50F27324B04006C
:104920001D68290A3940FFF7DFFF061CFF202840D9
:1049300003F074FE311C03F029F82C4B290D1B6881
:1049400039401E03360D6060268120000193FFF779
:10495000CBFFFF23071C280B184003F05FFE391C18
:1049600003F014F8019BE0601F0D2782281603F066
:1049700055FE05F0EDFC00221D4B04F03BFA020051
:104980000B0000201B4905F0A7F805F029FD6B4638
:10499000051C60610420185603F040FE05F0D8FCA9
:1049A0000022134B04F026FA02000B0000201149EC
:1049B00005F092F805F014FD0190A061300003F0BD
:1049C00073FE291C03F048FB0B4903F07BF9E061FF
:1049D000380003F069FE019903F03EFB064903F03D
:1049E00071F92062F7BDC0463060800034608000FD
:1049F00000408F400000F03F00F07F45062310B5D7
:104A0000037003000022040044331A70FFF784FF90
:104A10002000FFF74DFF10BDF7B54B4B9E88DD78AA
:104A2000DC781A69B6B21201120F00925978EDB211
:104A300009070A0FC021C9000192E4B29980597E8A
:104A4000C909FCD13F31D970597EC909FCD10F2267
:104A50001F693E490F401F615F7897435F705F7E1B
:104A6000FF09FCD11F221F699743BC4618276246E5
:104A700017431F611A69364F3A40C0277F01174319
:104A80001F615F7EFF09FCD11A78023717431F7040
:104A90005F7EFF09FCD11A7B023717431F731F7E0D
:104AA000FA07FCD5012700781F76082808D802F0FD
:104AB00057FD053B3D3F4143454749000020987065
:104AC000587EC009FCD11F7B023038431873187E12
:104AD000C207FCD5587EC009FCD10127588B1F7630
:104AE00080B25F7EFF09FCD102221F7897431F70BE
:104AF0005F7EFF09FCD19E805E7EF609FCD1DD70F1
:104B0000DC705C7EE409FCD11C69009A214012062D
:104B10000A430F211A615A788A4301990A435A704D
:104B20005A7ED209FCD1FEBD1120C8E72220C6E77B
:104B30003320C4E74420C2E74520C0E74620BEE753
:104B40004720BCE74820BAE700400042FFFFFFF0E3
:104B5000FFE0FFFF10B50400FFF75EFF010020003B
:104B6000FFF74EFE10BD0000F8B5050000270C4C05
:104B70002668002D0DD0E168300002F049FB216964
:104B80003000013702F074FB14340F2FF0D12800ED
:104B9000F8BD6168300002F03BFBA168F0E7C04659
:104BA0007CFD00007047000010B5024801F0FEFCDB
:104BB00010BDC0465C0B002010B5024801F0F6FCA9
:104BC00010BDC046580E0020F7B501240326154F2E
:104BD0001549380000F0E4F91449154800F0E0F9EF
:104BE0001449154800F0DCF91449154800F0D8F9CB
:104BF0001449154800F0D4F9144D1549280000F067
:104C0000CFF939002300009600220194114801F0E9
:104C100063FC290000961E231F2201940E4801F018
:104C20005BFCF7BD5411002000080042000C00425C
:104C300058110020001000425C11002000140042B6
:104C4000601100200018004264110020681100204B
:104C5000001C00425C0B0020580E0020F8B5050037
:104C60000E0017000024BC4208D02B682800315DDC
:104C70001B689847002801D00134F4E72000F8BDF4
:104C800070B505000C00081E07D006F089FF2B68E0
:104C90000200210028005B68984770BD10B5FFF73F
:104CA000EFFF10BD10B503688A685B680968984714
:104CB00010BD10B5FFF7E4FF10BD10B503681B6809
:104CC000984710BD10B50249FFF7DAFF10BDC04686
:104CD000A8FE000070B50500FFF7E4FF04002800FF
:104CE000FFF7F0FF201870BD70B50400FFF7C8FF94
:104CF00005002000FFF7E6FF401970BD0EB410B5A7
:104D0000040097B019AB04CB502102A8019307F01F
:104D100059FA200002A9FFF7B3FF17B010BC08BC76
:104D200003B01847F0B58BB06B4614000022053372
:104D300007000D00DA77012C00D80A2409AE2800FC
:104D4000210002F09DFC0300CAB2080029001D00EA
:104D500013003733DBB2092802D813003033DBB23B
:104D6000013E33708C42EAD931003800FFF788FFEA
:104D70000BB0F0BDF8B507000D00161E04D1036896
:104D8000C9B21B689847F8BD0A2A0CD100290BDA72
:104D90002D21FFF792FF3200040069423800FFF72F
:104DA000C1FF2018EFE7D2B229003800FFF7BAFFA1
:104DB000E9E710B5FFF7DEFF10BD10B5002A04D1FA
:104DC0000368C9B21B68984710BDD2B2FFF7AAFFAB
:104DD000FAE770B50400FFF7F0FF05002000FFF7C9
:104DE00071FF401970BD70B50400FFF7E6FF0500C4
:104DF0002000FFF767FF401970BD70B50500FFF791
:104E0000DCFF04002800FFF75DFF201870BD0000E4
:104E1000F7B51C0008AB1B782100009307002300A6
:104E20001000150005F0EAF94A4900281ED10122B8
:104E30006600760828003100474B524205F0DEF943
:104E4000002809D1012231002800434B524202F0D0
:104E500027FD4249002809D0E02228002100404BCC
:104E6000120602F027FD002806D03E493800FFF761
:104E700007FF06003000FEBDE022280021003A4B6B
:104E8000120602F003FD0028EFD1002200232800C3
:104E9000210002F0FBFC002814D02D213800FFF780
:104EA0000CFF80231B060190E418002600202F49E8
:104EB000009BB34208D000222D4B013603F09AFF2D
:104EC000F6B2F5E70190F0E72A00230003F028FC92
:104ED0000D00040002F03CFD060005F013FA0B0083
:104EE00002002900200004F0F7FD0A2204000D0052
:104EF00038003100FFF716FF019BC618009B002BFE
:104F000004D038001B49FFF7BBFE3618009B013B5D
:104F1000DBB20093FF2BADD0154B002220002900FF
:104F200004F06EFB0D00040002F012FD0A220100E5
:104F300001903800FFF7F6FE3618019805F0E2F907
:104F400002000B002000290004F0C6FD04000D0043
:104F5000DCE7C046ABFE0000FFFFEF7FAFFE0000C6
:104F6000FFFFEF41B3FE0000FFFFEFC10000E03F95
:104F700000002440EBEE000007B50499C9B200918F
:104F8000FFF746FF0EBD37B506990400C9B2009180
:104F9000FFF73EFF05002000FFF794FE40193EBDDD
:104FA000016070479446F0B505AC25789C1E621EE2
:104FB0009441624606689207376824063A432243C2
:104FC0000724326000682140AD0100244268294373
:104FD000022B00D05C030A4322434260F0BD30B58F
:104FE000C0250368AD031C6812052A402243C02473
:104FF0000904A40221400A431A6003685A68144352
:105000005C6030BD0123026811680B4313600368C4
:105010001A68D207FCD4DA69D207F9D470470223A0
:10502000026811680B4313600268D3699B07FCD4C4
:10503000704703681A7ED20702D41A7E9207FCD505
:105040007047002203685A8370470368187E400740
:10505000C00F70470368187EC0097047802302683C
:105060005B42117E0B43137670470368588B8007B1
:10507000C00F704702230268518B0B435383704764
:105080000368187EC007C00F70470368188DC0B250
:10509000704703681A7ED207FCD589B201201985B2
:1050A0007047012203689A757047012203681A75D8
:1050B00070470123026811680B43136003681A6884
:1050C000D207FCD4DA69D207F9D470470223026808
:1050D00011680B4313600268D3699B07FCD47047C7
:1050E0000368DA699207FCD402211A688A431A60BD
:1050F00070470268936A5B0A5B020B439362036822
:105100001A7E5207FCD5986AC0B2704710B50548A0
:10511000490002F02FFA80B2002801D0013880B295
:10512000C0B210BD006CDC0270B50C00012611008D
:105130006308026833403440156824075B07234343
:105140002B4313600468FFF7E1FF207370BD00007C
:105150000368104A934213D00F4A934212D00F4A69
:10516000934211D00E4A934210D00E4A93420FD070
:1051700001200D4A4042934201D1063040B27047AF
:105180000020FBE70120F9E70220F7E70320F5E71D
:105190000420F3E700080042000C00420010004227
:1051A0000014004200180042001C0042F8B5FFF74E
:1051B000CFFF00282CDB1D4BC000181805230479F5
:1051C000C3560320FF221840C0008240C021D243B2
:1051D0008140002B1DDB1F2501201D40C026A8405B
:1051E000134D7600A851C0269B089B005B19B600A2
:1051F0009F593A401143995128603F23234080240E
:10520000E4011C430B4B5C805A7852B2002AFBDB52
:10521000F8BD0F200340083B07489B089B001B1864
:10522000D86902401143D961E7E7C046B8FE0000E3
:1052300000E100E0000C004000ED00E0F8B50400E3
:105240000F0016001D00FFF7B1FF2000FFF7DAFE88
:105250001C21BB000B4071072268090C0B43136033
:10526000842322689375012F1AD11021012E00D0BA
:1052700008390C4B69431868C00002F07BF907221B
:10528000216802408B895203DB04DB0C13438B81C2
:10529000226803049089DB0C400B40031843908183
:1052A000F8BDC046A8000020F7B50500019308AB83
:1052B0000C0016001F78FFF7FCFE2800FFF776FFB2
:1052C000C021C022890224040C409203BF07360586
:1052D000274316403E430C2707222B683E431E609F
:1052E000019B296813401A0080239B0213434B60E3
:1052F0002A68D3695B07FCD4F7BD3F20704713B51C
:105300006B460268D9710733546819000122A0471F
:1053100016BD10B50221006900F03CFC10BD10B5AF
:105320000321006900F04CFC10BD000010B5130013
:10533000084A0400D279002A03D1012300206360C7
:1053400010BD0A000069032100F026FD0028F4D0FA
:10535000F6E7C0463000002010B5054C0300206879
:10536000421C04D11A68180052699047206010BD91
:105370007C000020074A0300106810B5411C03D0D0
:1053800001235B42136010BD0221186900F0F6FC96
:10539000F9E7C0467C00002010B5037842220233B2
:1053A00003700249024800F097FD10BD380000204C
:1053B0008811002010B50178030042780020A1294F
:1053C00008D1212A05D1174917481A3A00F084FD5F
:1053D000012010BD2129FCD1202A13D111491248E6
:1053E000193A00F031FC96220E4BD2001968914216
:1053F0000ED1DA7901231A420AD1FA2001F0DAFF3C
:105400000020E6E7222A06D19A78064BDA71EAE70D
:1054100001F0D6FFF4E7232ADBD15A88034B1A6048
:10542000D7E7C04630000020881100202C00002063
:105430007047000010B501F0FBFBFA2300245B006D
:10544000984207D3044B0A20DC79631E9C41E4B2E6
:1054500001F024FC200010BD30000020FA220021C1
:10546000054B92009A60054A08321A60044A596056
:105470001A6119767047C0466C110020E8FE0000E2
:1054800088110020704770B50F26CB1D02003240F6
:10549000D5B22C0000093034092A00DD07341C7015
:1054A0005A1E994200D170BD1300EFE710B50400F9
:1054B000806905F08FF9A06A05F08CF9200010BD15
:1054C00010B50400FFF7F2FF200001F067FC200098
:1054D00010BD000070B5032908D1324B8000C058C0
:1054E000002802D00368DB68984770BD82291FD16D
:1054F000C3B22D4D5A01AA1891692C4C80010C4061
:10550000C021890521439161294908334018802130
:1055100050612A685B01D018047949422143017126
:105520007020995C81430800302101439954DCE7E5
:105530000029DAD1C024C1B21B4E4A01B2189368C7
:105540001A4DA4052B40234393601A4B8001C018C9
:105550000B0050603068072608335B01195CB143CB
:105560000E0001213143195491690D402C4394617F
:1055700070240F495161195CA1430C001021214393
:10558000195491680C4CC3180C40802149032143E5
:1055900091609168890B89039160402259790A438F
:1055A0005A71A2E78C11002040160020FFFFFF8FE8
:1055B000B411002074130020FF3F00F0EFF31083BC
:1055C00003600123436072B670470368002B02D169
:1055D00062B6BFF36F8F704737B505690400684640
:1055E000002D14D1FFF7EAFF019B621D013B02D39E
:1055F000D57FEDB2FAE768460193FFF7E6FF002D8D
:1056000001D100203EBD206AE369C01AFAE7FFF726
:10561000D5FF22000025019B3432013B02D31578CF
:10562000EDB2FAE768460193FFF7CFFF002DE8D00F
:10563000206BE36AE9E70000F0B5FF250126426828
:10564000836811682B405B01CC186419A77AD318C2
:105650003E43A672C6689C680B4FB60436093C40B0
:1056600034439C6083682B405B01D2189468A40B80
:10567000A4039460402283682B4008335B01CB185D
:1056800019790A431A71F0BDFF3F00F0F7B50569BB
:1056900004000E0017006846002D43D1FFF78EFF6F
:1056A000019B601D013B5A1C0BD0C27F591E002A72
:1056B00005D168460193FFF788FF2800FEBD0B0067
:1056C000F1E768460193FFF780FFE369AF420AD034
:1056D000226A9A4207D95A1CE261A269D3181B7840
:1056E00073550135F1E7226A9A42E6D10023E3615E
:1056F000013368462361FFF761FF22000021019B0F
:10570000671D013B3532581CD3D0F97710785E1EE7
:10571000002805D0200011700193FFF78DFFECE702
:105720003300F0E7FFF74AFF2000019B3430013BD4
:105730005A1C06D00278591ED5B2002AB9D00B00E7
:10574000F6E7684601930025FFF73FFFE36ABD4295
:1057500002D0226B9A421CD8226B9A42ADD1002310
:105760006846E3622361FFF729FF2700220000213A
:10577000019B3437013B3532581C9AD03970107870
:105780005E1E00280DD0200011700193FFF754FF1A
:10579000EBE75A1CE262A26AD3181B7873550135F5
:1057A000D4E73300E8E7F7B582684368D2B2110066
:1057B00004000831186849014118C879C00729D583
:1057C00001255201CD719B189A6861699204920C6F
:1057D000002923D12262226A002A41D0A26A65618F
:1057E00068465A60FFF7EAFE342294462200019B85
:1057F000671D013BA4443532591C2DD06146FD770D
:105800000978581ECEB2002905D00193684615705C
:10581000FFF7DBFEF7BD03001670EDE72263226B96
:10582000002A1DD0002227006261A26968465A60E2
:10583000FFF7C4FE019B621D9446013B34373032B2
:10584000591C09D061463D70C97F581ECEB200294F
:10585000DBD103001670F3E768460193FFF7B5FE4E
:105860002000FFF7E9FED5E713B56A4600230C00D8
:10587000D01DD371FFF790FD23681818206001F048
:1058800015FE6B46D91D01F0DDFD236818186B4627
:105890002060D87916BD00000421034B1A681378E4
:1058A0008B4313707047C0464016002003290ED169
:1058B00080220E4B62311B68FF31585C524202431A
:1058C0005A5468226339FF32FF39995470470129CD
:1058D000FCD18022054B24311B68FF31585C5242B9
:1058E00002435A5428222339FF32EDE740160020A4
:1058F0002023264A70B5D16904000B43D3610122ED
:105900000F2023490B7813430B70224B19788143E6
:10591000197006211D78294319701F490D782A43F3
:105920000A701A7802401A70602219780A431A70B5
:105930001A4B1B4A5A805A78D209FCD1194801F0F7
:1059400071F9194D280001F0C5FD280001F0D8FDBE
:105950007F212B68C1201A7880000A401A70042227
:1059600019780A430C211A701A898A430F491A813F
:105970000A581202120A0A5080220A6019787E3AE6
:105980000A431A700123237070BDC0460004004012
:10599000584400413C44004159440041000C00403F
:1059A00006400000196300004016002000E100E0FE
:1059B0000078002810D00121084B1B681A898A43FF
:1059C0001A810822198B0A431A830422198B0A436D
:1059D0001A830022024B1A607047C046401600200E
:1059E000381600200A000E498B699B0B9B038B61C4
:1059F0000B680221FF33197298798239014399713A
:105A0000197A8907FCD57F20064B0240997A814399
:105A1000114380229972997A52420A439A727047CE
:105A200040160020005000410078002805D0034BAC
:105A30001A68012311890B43138170474016002017
:105A400010B50B790C00002B0CD10800FFF7B2FC4D
:105A5000002801D0012010BD094A93699B0B9B03CC
:105A60009361F7E701F022FD210001F00FFD00280E
:105A7000F0D1034A93699B0B9B039361EBE7C0460C
:105A800040160020F7B50D001100832A19D1EBB2A2
:105A9000324C5A01A21891693148AD010840C02129
:105AA0008905014391612F4920686D1870210833E1
:105AB00055615B011A5C8A43110040220A431A5463
:105AC000F7BD022A45D1284AAB009858002802D0D9
:105AD00003685B699847382001F05CF9234B802705
:105AE000036000231D4E7F00421D0362036143617A
:105AF000C36146608560C760D3772F32C36203639A
:105B0000040013703800537004F05AFE0190A06135
:105B1000380004F055FEEBB25A01A062B218916849
:105B20000F4808330840C02189050143916031685E
:105B300007265B01585CAD00B043060003203043EC
:105B40005854019B20005360FFF776FD064B5C51D3
:105B5000B6E72800FFF7BEFCB2E7C04640160020BB
:105B6000FFFFFF8FB41100208C11002014FF0000F4
:105B700070B505000124064BA200D258002A05D0BA
:105B800021002800FFF77EFF0134F4E770BDC04616
:105B900080000020084B8A00D05810B5002803D0A0
:105BA00003689B68984710BD044BC9B24901591856
:105BB00088688004800CF6E78C11002040160020D5
:105BC00010B50C00FFF7E6FF00280CD0064BE4B23E
:105BD00019688023083464010C1962795B4213430D
:105BE00063710223E37110BD4016002070B5CBB283
:105BF000124A13485C0189018918021951609168A1
:105C0000104D08330D4080218902294340259160C1
:105C10009168890B8903916001685A018A18167985
:105C20003543157195796D06FCD55B01C918CB79A3
:105C3000DB07FCD500198068C0B270BD741300206A
:105C400040160020FF3F00F070B5140040220B4BBF
:105C50000D001B68FF3359790A435A710021FFF781
:105C6000C5FFA04200D9200000230549A34203D06C
:105C7000CA5CEA540133F9E770BDC0464016002003
:105C80007413002010B50C48C9B24901421893683A
:105C90009B049B0C3F2B0BD99468403B9B04A40BAB
:105CA0009B0CA4032343936041188868C0B210BDC5
:105CB00093689B0B9B03F6E740160020F0B51C0091
:105CC0002A4B85B01B6806000D000192002B49D0BD
:105CD000274B8A00D058002808D0036822005B6850
:105CE000019998470400200005B0F0BD3000FFF78F
:105CF00051FF844204D929003000FFF74BFF040014
:105D000029003000FFF7BEFF0121EBB2194F0393CA
:105D10005B010293029A3B6801989B18FF335A7A01
:105D20000A435A72144BA9012200C91804F05CFD01
:105D3000002CD8D029003000FFF72CFF0028D2D14A
:105D40004021039B3A6808335B01D318187901435B
:105D500019710121D971029BD318FF339A7A0A4332
:105D60009A72C0E701246442BDE7C046381600209D
:105D70008C110020401600207413002013B56B46D0
:105D8000DC1D22000123FFF799FF012801D12078B3
:105D900016BD01204042FBE7F0B51C00354B85B035
:105DA0001B680E000192002B35D08023DB019C4242
:105DB00031D80027304B8A01D3180293002C2CD005
:105DC0002E4B1B680393FF2333401D0000930835BF
:105DD000039B6D015D19AB79DB0921D0284B294963
:105DE000186801F0C7FB284B1721584301F0C2FB8C
:105DF000264BEA79920713D49A5D002A01D1013823
:105E0000F7D201229A55009B5A011C4B9B189A69A4
:105E1000920B92039A6101277F42380005B0F0BDD2
:105E200000221A4B25009A55402C00D940252A0003
:105E30000199029804F0D8FC009BA9045A010F4B69
:105E4000890C9B18029A7F195A619A69641B920BFC
:105E500092030A439A61009B039A08335B01D318AB
:105E60000222DA715979823A0A435A71019B5B190D
:105E70000193A3E738160020B4110020401600203B
:105E8000A800002040420F0070110100A91100205D
:105E900070B50C001D000D4BA601F6181100300066
:105EA0002A0004F0A1FCE4B2094A640114196661F5
:105EB000A369084928000B40A361A169AB04890BC1
:105EC0009B0C89031943A16170BDC046B411002029
:105ED00040160020FF3F00F0F7B5104B0F001B7875
:105EE00014000190002B0CD10D4B16001D78002DD5
:105EF00009D00C4E0C48358828182D1904F074FC74
:105F000035802000FEBD002EFBD033007A19002121
:105F10000198FFF7BDFF2D18361AF4E7341500205D
:105F2000351600203616002035150020F8B5002063
:105F30000D00140000AF012A27D9D31D6A46DB08E3
:105F4000DB00D31A9D46080005F02AFE6E460323A7
:105F5000022200210130400030707370A2420DD245
:105F6000287800280AD0531CDBB20135B0549C427B
:105F700003D00232F154D2B2F0E7220031000448DB
:105F8000FFF7AAFF431E9841C0B2BD46F8BDC04608
:105F900088110020F0B50025012785B0184B0E00B0
:105FA00069461F7004000095FFF75EFC154B01A9C0
:105FB0000B806A3BFF3BCB716E3B0B72009B320048
:105FC00009334B800E4B8D714F7108711D70092E76
:105FD0000FD00D4E092237700C4F200000953D80E8
:105FE000FFF77AFF69462000FFF73EFC3A88084930
:105FF00035702000FFF770FF012005B0F0BDC046EE
:106000003415002009020000351600203616002045
:1060100035150020F0B5CF7805000E0093B0022FA3
:1060200009D1C9882B48FFF7B5FF441EA041C4B26F
:10603000200013B0F0BD01F039FA310001F016FA7A
:10604000002803D0C417241AE40FF1E7012F0BD165
:10605000F2882149112A11D8D2B2002A0ED0280084
:10606000FFF73AFF0124E3E70400032FE0D1B37800
:10607000002B05D1F2881949032AEDD90A78EEE7F9
:10608000022B06D1B27916492800FFF74FFF040012
:10609000CEE7012B02D1B2791249F5E7032BC7D124
:1060A000114B01A91868FFF7EEF9104B03A9186806
:1060B000FFF7E9F90E4B05A91868FFF7E4F90D4B56
:1060C00007A91868FFF7DFF96B460533DC77B2796B
:1060D00001A9D9E78811002046FF000034FF000025
:1060E0002CFF000038FF00000CA0800040A08000C2
:1060F00044A0800048A0800037B5050048780C0017
:106100000B2810D801F02CFA061B0F310F484D75E3
:1061100051546E71097801AA002906D10223118019
:106120002800FFF7B5FE01203EBD00231380324B4F
:106130001B78012B00D1137002230021F0E78A782D
:106140000023012A09D16A4693802C4B1B78012B2E
:1061500000D11371022301AAEFE7274A1370284ADE
:1061600093699B0B9B039361DDE78C78012C07D12E
:10617000224B01AA1C70234B1B7813702300DCE711
:1061800000208442D0D11C4B01301D4A1870936905
:106190009B0B9B039361C7E728008978FFF722FCDC
:1061A000C1E72800FFF736FFBEE70123164AC4E720
:1061B0000B780020DB06B7D12800FFF7D9FC2A2096
:1061C0000221A278104BFF301A600D4A13681C5C44
:1061D00021434A241954FF34195D2938FF380143FB
:1061E0001955D4E70123094AA7E78A78074B1A60B3
:1061F000B5E7002098E7C046A8110020B0110020A4
:1062000040160020AAFE0000381600203C16002090
:106210003B4BF7B51C780700002C64D1394E33682E
:106220009B8B1B070ED521002000FFF753F9326826
:1062300010231100FF31887A03438B72324B1C60AC
:106240000823938333689A8B520701D504229A83DB
:10625000FF331A7AD2061ED510221A7259793032BB
:106260000A435A716023294938000A781A423BD1FF
:10627000FFF742FF3368FF33002838D08022997936
:1062800052420A439A711A7A520604D540221A726F
:10629000597A0A435A72336800241D8C01239D43A6
:1062A000EDB20193E1B2002D1DD02B002341019AE4
:1062B000134215D02300326808335B01D318DA7912
:1062C000D20702D4DB799B0707D5114BA200D05827
:1062D000002810D003681B689847019BA3409D438A
:1062E0000134092CDED1F7BDFFF7AAFBC2E720215C
:1062F000084A9171C7E73800FFF7D8FAEDE7C046C2
:106300003516002040160020381600207413002097
:106310008C110020FF50004110B50248FFF778FFB4
:1063200010BDC04688110020014B024A1A60704718
:1063300040160020005000410120704710B503684E
:10634000014A1B6A984710BD130400000300FC3388
:10635000D96F9A6F914203D0DB6FC018007D7047F0
:1063600001204042FBE710B504000069FEF74AFE39
:1063700022000023FC329367D3679E229200A41868
:106380006366A36610BDF0231B011940802306201D
:106390009B0099420AD00133FF330130994205D066
:1063A000802300205B00994200D1053070470F2008
:1063B00001400020012903D00239481E8141481CB8
:1063C00070470000B923F0B5182785B002919B00F3
:1063D0000400C05C3B0008214343324E1500F31813
:1063E000595600F089FF304B0821E05C3B004343E5
:1063F000F318595600F080FF2C4BE25C0393022AFD
:1064000009D11133E05CFF2805D008214743F71973
:10641000795600F071FFBA27BF00E05DFF2819D060
:10642000012100F0F5FE1822E35D21495A43B356DD
:10643000B618DB015818BB21890060501D490122A4
:106440005B18BC218900635071688A40BD218900B6
:1064500062501A600122029B11002069FEF7EEFED5
:1064600029002000FFF78FFF290006002000FFF71A
:106470009EFFF0221540303D6A4255410300310035
:10648000206901220095FEF78DFD0B4B2069E25C2F
:10649000039BE15CFEF7A3FD2069FEF7C0FD05B09C
:1064A000F0BDC0462CF90000E5020000E702000044
:1064B0001844004114440041E6020000AF2210B528
:1064C00004000021520004F0ABF923000022FC3349
:1064D00020005A669A6610BDF7B51D0008AB1B7800
:1064E0000400009309AB1B7816000193002343605E
:1064F000FA239B008360104B0F00083303601430B5
:10650000FFF7DCFF20007D30FF30FFF7D7FFB92316
:106510009B002761E654094B009AE554084B200084
:10652000E254019A074BE254BA22E93BFF3B920046
:10653000A3541032A354FEBD58FF0000E502000032
:10654000E6020000E70200000300FC33586E9B6E79
:10655000C01A01D55F30FF30704710B5040020002D
:106560007D30FF30FFF7F0FF0028F8D12069FEF7FB
:1065700060FD10BD10B51430FFF7E6FF10BD03003D
:10658000FC33596E9A6E914205DB5A6E986E801AF2
:106590005E30FF307047986E5B6EC01A0138F9E7C5
:1065A00010B57D30FF30FFF7EAFF10BD70B5040075
:1065B0000069FEF75AFD002805D02069FEF765FD49
:1065C0002069FEF757FD2069FEF73FFD002824D023
:1065D00025002069FEF759FDAF21FC350600A86FA4
:1065E0004900013001F04CF8EB6F994203D0AB6FDA
:1065F000E3181E75A967BA239B00E35CFF2B0CD040
:1066000020001430FFF7BBFF092806DCBB23BD22A6
:106610009B009200E358A2581A602069FEF730FDF3
:1066200000281DD020007D30FF30FFF78DFF0028AF
:1066300025D09E239B00E618B26E736E9A421BD043
:10664000BE22AF21B36EB06EE31852000130490094
:106650009D5C01F015F8B1662069E9B2FEF719FDFD
:106660002069FEF7F7FC002805D02069FEF7F6FC4C
:106670002069FEF7E6FC70BD01256D42ECE720695C
:10668000FEF713FDECE70000F7B5040000690E000B
:10669000FEF7F6FC002847D1AF277F009E239B0022
:1066A000E518686EAB6E39000130019300F0E8FF29
:1066B000019B994224D1EFF31083DB070ED4204BCA
:1066C0005B68DB05DA0D002BE8D0103A53B21206F6
:1066D0000DD49B081B4AC0339B009B582069FEF7D2
:1066E000CFFC0028DAD02000FFF760FFD6E70F22AA
:1066F0001340083B144A9B089B009B181B68EDE75E
:10670000AF21686E4900013000F0BAFFAB6E9942CC
:1067100005D0BE226B6E5200E3189E546966206954
:10672000FEF7BFFC0120FEBD20007D30FF30FFF7EB
:106730000BFF0028B0D131002069FEF7AAFCF1E779
:1067400000ED00E000E100E01CED00E070B50500A8
:10675000FC35EA6FAB6F04009A421DD0AF21EB6F9E
:106760004900C318E86F1E7D013000F089FFE9671A
:10677000BA239B00E35CFF2B0CD020001430FFF702
:10678000FEFE0A2806DDBC23BD229B009200E358D2
:10679000A2581A60300070BD01267642E8E700007A
:1067A000F7B50092182216264243544B07009B1857
:1067B0009E570191731C52D0514B524C1D68002DB5
:1067C0002BD129004422504804F02AF82900442201
:1067D0004E4804F025F810224D4B4E491D604E4B9B
:1067E000CA67BFF34F8FBFF36F8FC021C12049002D
:1067F0005A5080001958FF35A94319501A60474B69
:10680000474A5A8002232278134323706378DB09B6
:10681000012BFBD001223A4B1A6001231D00B54029
:1068200062692A436261019A002A18D0102E1FD192
:10683000E2781343E370009B042B0BD81800072366
:10684000A2789A4300F08CFE030C0E101200052370
:106850001343A3702D4B019A1A64ADB2E560F7BDE6
:106860000423F5E70323F3E70223F1E70123EFE72E
:1068700038000027002100F03FFD254B22499C46AF
:106880001B68BA00BB421DD16046013303601F4B39
:106890008D5001999950072E19DD32000123083AD5
:1068A00092000720904017499B005B18996981432B
:1068B000996100990429D0D8080000F051FE0B120C
:1068C00015181B008858A842E1D00137D9E70023EA
:1068D000B200E6E70521986991400A0002439A61F7
:1068E000BBE704219869F7E703219869F4E70221DF
:1068F0009869F1E701219869EEE7C0462CF900009C
:10690000CC170020001800408817002044170020F2
:10691000D017002004E100E000E100E0000C00409E
:106920000540000070B50024094D0A4B1B68A342C6
:1069300000D870BD084E2A6833691A4205D0074B4B
:10694000A200D35898472B68336101340435ECE733
:1069500088170020D017002000180040441700209E
:10696000054B10B51B6C002B00D098470123034A40
:10697000D1780B43D37010BD44170020001800409D
:1069800010B5041E05D005F0ABF8210000F062FF41
:106990000C00200010BD10B50400884203DA081A6C
:1069A000FFF7EEFF2418200010BD10B504000068AA
:1069B00003F010FF200010BD10B50400006800288F
:1069C00001D003F007FF00232360A360636010BDC4
:1069D00070B504000D000068013105F0B3F8031E26
:1069E00001D0012028C470BD036810B50400002B3D
:1069F00004D043688B4201D3012010BD2000FFF773
:106A0000E7FF0028F9D0A368002BF5D122681370A6
:106A1000F2E770B50E00110004001500FFF7E4FF67
:106A2000002804D12000FFF7C7FF200070BD31000F
:106A30002068A56005F0ACF8F7E7002370B5040006
:106A40000D00036043608360994207D0080005F0A1
:106A5000A7F8290002002000FFF7DBFF200070BD2F
:106A600010B50B000400884205D00968002904D045
:106A70009A68FFF7CEFF200010BDFFF79DFFFAE7F1
:106A8000002310B50400036043608360FFF7E8FF54
:106A9000200010BD70B504000D1E09D0080005F0DF
:106AA0007FF8290002002000FFF7B3FF200070BD2F
:106AB000FFF782FFFAE71FB50400002308002360F8
:106AC0006360A36001A900F03EF9200001A9FFF76F
:106AD000E1FF200004B010BDF8B504000E1E02D185
:106AE00000273800F8BD0127002AFAD08368D5189E
:106AF0002900FFF779FF0028F2D02368A26831004F
:106B0000981805F045F8A560EBE710B58A680968A4
:106B1000FFF7E2FF10BD70B505000C00081E06D09F
:106B200005F03EF8210002002800FFF7D5FF70BDF8
:106B300070B504000D1E04D12000FFF73DFF2000BA
:106B400070BD080005F02CF8290002002000FFF7B6
:106B5000C3FF0028F0D0F2E7F7B507000E001400DD
:106B60001D009A4201D91C00150038000D49FFF79D
:106B700064FFB368A34212D90193AB4200D90195D7
:106B800033680199019A5D5C9A1800231370336889
:106B900038001919FFF77EFF3368019A9D543800B9
:106BA000FEBDC046AAFE0000FEE7FEE7034B10B59F
:106BB0001B68002B00D0984710BDC046D41700209A
:106BC0000F4A1048110010B50F4B824202D0934279
:106BD00009D11300824209D100F03EF900F0B8F863
:106BE000FEE710CB10C18142FBD3F3E7074A8B428B
:106BF000F2D00021064B9A42EED202C2FBE7C04619
:106C00000000002020030020F004010020030020E9
:106C10002C18002010B500F062F8002801D100F017
:106C200053F810BD014B18607047C046D4170020C0
:106C3000014B18687047C046D8170020F7B51348B5
:106C4000012284461249134C8E68636805689B0EC6
:106C50001340019288686268019F920E3A4067462D
:106C60003F6893420ED1BD420CD186420AD35B19D4
:106C7000FA254868AD00861B07486B437043000D3A
:106C8000C018FEBD3D0013000600E3E7D817002042
:106C900010E000E000ED00E05555000070B5041E66
:106CA00011D0FFF7CBFFFA260500B60000F016F86A
:106CB000FFF7C4FF401BB042F8D3FA23013C9B000E
:106CC000ED18002CF4D170BD10B5034A13680133E0
:106CD000136000F07DFB10BDD81700207047002026
:106CE0007047F0B50C0017008BB0002912D0931E2E
:106CF000222B26D801AE350000280ED1AE420CD092
:106D000022002B00B34217D800221300AE4200D855
:106D1000AB1BE25420000BB0F0BD390000F0B0FC1A
:106D2000CAB213005733DBB2092902D8130030333B
:106D3000DBB22B700135DFE7013B197811700132AE
:106D4000E0E70024E6E710B5FFF7CBFF10BD000039
:106D500010B500F031F903F005FDFDF723FF012028
:106D6000FFF79CFF094C2000FEF7C2FD2000FEF754
:106D70001FFEFBF7B9FEFBF7EFFFFFF7AFFF044B7A
:106D8000002BF8D000E000BFF5E7C04688110020D6
:106D90000000000010B503F013FD10BD10B503F0A6
:106DA00019FD10BD1823F7B501265843164B1500E1
:106DB000C2181B560C00019353689E40002900D056
:106DC0003400124F1249386800F0D4FB0D2168439B
:106DD00000F0D0FB019A0300D0010E4A3100801868
:106DE000220000F01BF800280DD0FA23FA210A4CEB
:106DF0009B01444389003868E41800F0BBFB0100A4
:106E0000200000F0B7FBFEBD2CF90000A800002018
:106E100040420F0020440041C832000030B50468F1
:106E20000C40944206D1013B002BF8D112E0013B0B
:106E3000002B0FD004680C409442F8D10024056860
:106E40000D40954204D101349C42F8D1002002E06B
:106E5000201C00E0181C30BD1E2270B54648474972
:106E6000436893431C3A1343436008238C692343CC
:106E70008B61434C434B9C829C8A14439C82DC680C
:106E80001442FCD00124404A14701578254203D0E6
:106E900055786DB2002DF8DB01249460547864B20B
:106EA000002CFBDB394C5460547864B2002CFBDBC3
:106EB0008224E4015480547864B2002CFBDB022469
:106EC0009C840E34DD682542FCD0314CDC621024F9
:106ED000DD682542FCD09D8C2E4C2C439C841024D4
:106EE000DD682542FCD002249D8C80262C439C84A6
:106EF0004024DD683542FCD0DD682542F9D01024FD
:106F0000DD682542FCD000249460547864B2002CE3
:106F1000FBDB214C5460547864B2002CFBDB1C6A10
:106F20001E4D2C4080251C621C6AAC431C6203234E
:106F300093601B4B536053785BB2002BFBDB002349
:106F4000FF240B72174A4B728B72CB72164B1A606E
:106F5000164B174A1B6811689A065B01C90E23403D
:106F6000520F12020B431343124A138580234268C7
:106F70001343436070BDC046004000410004004020
:106F80000C06000000080040000C00400105010054
:106F9000B905FF7D040A000000070300FFFCFFFFA6
:106FA00003060100006CDC02A800002024608000C1
:106FB0002060800000400042FA212E4B10B5186876
:106FC000890000F0D7FA802301385B0498424FD241
:106FD00029492A4A4860C020136A00061B021B0A7E
:106FE0000343136200238B6007330B608021136A15
:106FF00009061B021B0A0B431362FC22204B196A71
:107000000A431A62FF22196A12020A431A62A02274
:10701000196AD2020A431A621A4B1C005A7852B2F9
:10702000002AFBDB184A5A80184B1A00597EC909FE
:107030000129FBD0C821890099800521D970537E90
:10704000DB09012BFBD0C02300205B011361907092
:1070500000F022F863785BB2002BFBDB0C4B0D4A8F
:107060006380D379DB09012BFBD04123537010BD22
:10707000FEE7C046A800002010E000E000ED00E0C0
:1070800000040040000C00401E4000000040004290
:1070900021400000004800421F4900B50B004A7E15
:1070A000D209012AFBD001380A282FD800F058FA5B
:1070B0001B2E2E2E2E2E062E2E2411001A69174955
:1070C0000A400F211A615A788A43110001220A43AB
:1070D00010E01A6911490A400F211A615A788A434F
:1070E00011000322F3E71A690C490A400F211A61C3
:1070F0005A788A435A7000BD1A6908490A400F211C
:107100001A615A788A4311000222E0E7F0221969D5
:1071100012050A43F3E7C04600400042FFFFFFF0BC
:1071200010B50400062861D0072861D0052800D8D2
:107130000E340121200000F0DFF80E2C0DD12F4B72
:107140001900DA79D209012AFBD002201A78824389
:107150001A70CB79DB09012BFBD029490B004A7E41
:10716000D209012AFBD018206043264C0A69241852
:10717000207C1F242040A24302430A615A7ED20988
:10718000012AFBD0022219780A431A705A7ED209CA
:10719000012AFBD00222197B0A431A731A7ED207F6
:1071A000FCD501221A765A7ED209012AFBD002228E
:1071B000197B0A431A731A7ED207FCD5588B80B20A
:1071C0005A7ED209012AFBD002211A788A431A700A
:1071D0005A7ED209012AFBD00B4B1A680B4B1B6855
:1071E0009A4202D006D9D31AD84010BD2C24A0E769
:1071F0002D249EE79B1A9840F7E7C04600480042BE
:10720000004000422CF90000AC000020B00000203B
:10721000182310B508245843134A13181C57013477
:1072200012D001245B6882569C4003290CD80800C8
:107230000E49D2015218D318403300F091F90210D0
:10724000060B02211970546010BD0621197054609C
:107250009461F9E70621197054605461F4E7422102
:1072600019709460F0E7C0462CF90000004400411A
:107270001823F0B508245843114A13181C57013439
:107280001BD0012635005F688356BD400D4ADB01E7
:107290009A18906805420BD10C00601E8441D219E7
:1072A0004032107834400336A400B04320431070BD
:1072B000044A9B18002901D15D61F0BD9D61FCE786
:1072C0002CF9000000440041182310B50824434362
:1072D00007490020CA181457013408D05B560549E5
:1072E000DB015B18186A5368D8400123184010BDB1
:1072F0002CF9000000440041182370B508264343D0
:107300002A4AD518AE573400013607D0072907DCC2
:1073100000291DDA01314C424C416442200070BD0D
:107320000B00083BDBB20024032BF7D8092903D15B
:107330002100FFF76DFFF1E70A2904D10839FFF7B3
:1073400067FF0024EAE700240B29E7D10A39F0E7B8
:107350006C68012520009B56C9B262082840DB01F9
:107360002C4211D012480E351B189A183032107862
:10737000090128400143C9B2117041221B19403351
:1073800019780A431A70DCE70F26094D5B199A1821
:10739000303215781B19B54329431170412240330F
:1073A000197804000A431A70B8E7C0462CF90000A7
:1073B00000440041014B18607047C046B4000020F3
:1073C0000122024B52421A607047C046B4000020AE
:1073D000164A10B51368591C27D0013B1360002BC7
:1073E00023D172B68122124B92000433934213D3FD
:1073F000104A01211000147D0C42FCD02021148B76
:10740000FF319B085B0021431183D3610A4B13803A
:107410000123027D1A42FCD0BFF34F8F074B084A6D
:10742000DA60BFF34F8FC046FDE710BDB400002007
:10743000002000000040004102A5FFFF00ED00E039
:107440000400FA0570B50E0000254468002C0BD02E
:107450002368310020005B689847002802DBE4685D
:107460002D18F3E701256D42280070BD70B50D00A1
:107470004468002C08D02368290020009B689847A6
:10748000002802D1E468F4E7200070BD70B50D005B
:107490004468002C08D02368290020001B68984706
:1074A000002802D1E468F4E7200070BD064A0123F9
:1074B000116810B50C0005481C40194203D104495D
:1074C00044600180136010BDDC170020E01700202D
:1074D0000204000070B50400012320CC00212A78AA
:1074E0002000134380222B70520003F099F9AB78EF
:1074F000DB07FCD4AB789B07F9D46C6270BD00004D
:107500001F22144B70B51B68590B9C0C9B0111403A
:107510005B0F22401F2900D11A391F2A00D1023ADD
:10752000072B00D1043B1F2500688E01048D0A49FA
:107530002A40214031430185018D14000A00AA43ED
:1075400022430285028D1903044B13400B4303852C
:1075500070BDC046246080003FF8FFFFFF8FFFFF33
:1075600002B4714649084900095C49008E4402BCD6
:107570007047C046002243088B4274D303098B42F4
:107580005FD3030A8B4244D3030B8B4228D3030CF3
:107590008B420DD3FF22090212BA030C8B4202D395
:1075A0001212090265D0030B8B4219D300E0090ABD
:1075B000C30B8B4201D3CB03C01A5241830B8B42C6
:1075C00001D38B03C01A5241430B8B4201D34B03AF
:1075D000C01A5241030B8B4201D30B03C01A524114
:1075E000C30A8B4201D3CB02C01A5241830A8B4299
:1075F00001D38B02C01A5241430A8B4201D34B0282
:10760000C01A5241030A8B4201D30B02C01A5241E5
:10761000CDD2C3098B4201D3CB01C01A5241830999
:107620008B4201D38B01C01A524143098B4201D3D3
:107630004B01C01A524103098B4201D30B01C01AFE
:107640005241C3088B4201D3CB00C01A5241830878
:107650008B4201D38B00C01A524143088B4201D3A5
:107660004B00C01A5241411A00D201465241104605
:107670007047FFE701B5002000F0F0F802BDC046FA
:107680000029F7D076E7704703460B437FD40022EA
:1076900043088B4274D303098B425FD3030A8B42A6
:1076A00044D3030B8B4228D3030C8B420DD3FF2210
:1076B000090212BA030C8B4202D31212090265D0DE
:1076C000030B8B4219D300E0090AC30B8B4201D391
:1076D000CB03C01A5241830B8B4201D38B03C01AD8
:1076E0005241430B8B4201D34B03C01A5241030B4F
:1076F0008B4201D30B03C01A5241C30A8B4201D300
:10770000CB02C01A5241830A8B4201D38B02C01AAA
:107710005241430A8B4201D34B02C01A5241030A21
:107720008B4201D30B02C01A5241CDD2C3098B4206
:1077300001D3CB01C01A524183098B4201D38B0183
:10774000C01A524143098B4201D34B01C01A524126
:1077500003098B4201D30B01C01A5241C3088B426B
:1077600001D3CB00C01A524183088B4201D38B0056
:10777000C01A524143088B4201D34B00C01A5241F8
:10778000411A00D201465241104670475DE0CA0FCF
:1077900000D04942031000D34042534000229C468F
:1077A00003098B422DD3030A8B4212D3FC22890199
:1077B00012BA030A8B420CD3890192118B4208D36F
:1077C000890192118B4204D389013AD0921100E0D1
:1077D0008909C3098B4201D3CB01C01A52418309E5
:1077E0008B4201D38B01C01A524143098B4201D312
:1077F0004B01C01A524103098B4201D30B01C01A3D
:107800005241C3088B4201D3CB00C01A52418308B6
:107810008B4201D38B00C01A5241D9D243088B420C
:1078200001D34B00C01A5241411A00D201466346AF
:1078300052415B10104601D34042002B00D5494213
:10784000704763465B1000D3404201B5002000F052
:1078500005F802BD0029F8D016E770477047C0460A
:107860008446101C62468C46191C634600E0C046E4
:107870001FB501F055FE002801D40021C8421FBDEC
:1078800010B501F09FFD4042013010BD10B501F070
:1078900047FE002801DB002010BD012010BDC046BE
:1078A00010B501F03DFE002801DD002010BD0120D3
:1078B00010BDC04610B501F0C1FD002801DC00205C
:1078C00010BD012010BDC04610B501F0B7FD002865
:1078D00001DA002010BD012010BDC0468446081CFE
:1078E0006146FFE71FB500F06DFB002801D40021C1
:1078F000C8421FBD10B500F0F1FA4042013010BD82
:1079000010B500F05FFB002801DB002010BD012056
:1079100010BDC04610B500F055FB002801DD002069
:1079200010BD012010BDC04610B500F0FFFA0028C0
:1079300001DC002010BD012010BDC04610B500F0D4
:10794000F5FA002801DA002010BD012010BDC04664
:1079500070B500220C4B04000D00FFF7B5FF0028A6
:1079600004D12000290002F067FC70BD064B002204
:107970002000290002F0B0F802F05EFC80231B0614
:107980009C466044F1E7C0460000E041F0B5464641
:10799000D6464F464D024202C0B5520A6E0A470013
:1079A000B0463F0E4E00C40FD00094463B008246C6
:1079B000360EC90FAD098C426DD0B81B8146002828
:1079C0004DDD002E00D188E0FF2F5AD08023DB044C
:1079D0001D434B4601221B2B0ADC2B004A4649461D
:1079E000D3402022521A95402A00551EAA411A431C
:1079F00053469A1A530100D4B9E092019609300017
:107A000002F076FD05388640874200DDD4E0330081
:107A1000C71B20200137FB40C71BBE403200561E4B
:107A2000B24100271A43530704D00F231340042BFD
:107A300000D00432530100D49CE07B1CFE2F00D107
:107A40009AE09201520A9446DBB2D8056346E407F5
:107A5000184320431CBC90469946A246F0BD00281E
:107A600049D0F31B002F00D0B6E05246002A60D068
:107A7000013B002B00D1FCE0FF2E00D0B4E00C0055
:107A80004246002A78D08020C00310434202530AA5
:107A90009C46FF23D9E7B91B002971DD002E3FD09A
:107AA000FF2FEED08023DB041D4301221B2907DCBE
:107AB0002A002023CA40591A8D406B1E9D412A433B
:107AC0005244530153D50137FF2F55D001237B4931
:107AD000134052080A401A43A5E7002D2CD0012379
